:100000000C9424010C9441010C9441010C94410185
:100010000C9441010C949C010C9441010C944101FD
:100020000C9441010C9441010C9441010C941C036B
:100030000C9441010C9441010C9441010C94410138
:100040000C9441010C9441010C9441010C94410128
:100050000C9441010C9441010C9441010C94410118
:100060000C9441010C944101000000000000005F6D
:1000700000000007000700147F147F14242A7F2A41
:10008000122313086462364955225000050300000C
:10009000001C2241000041221C0014083E081408E4
:1000A000083E0808005030000008080808080060F2
:1000B00060000020100804023E5149453E00427F86
:1000C000400042615149462141454B311814127F8D
:1000D0001027454545393C4A494930017109050316
:1000E0003649494936064949291E0036360000007E
:1000F0005636000008142241001414141414004150
:100100002214080201510906324979413E7E11113B
:10011000117E7F494949363E414141227F4141227A
:100120001C7F494949417F090909013E4149497AF2
:100130007F0808087F00417F41002040413F017F48
:10014000081422417F404040407F020C027F7F0420
:1001500008107F3E4141413E7F090909063E415159
:10016000215E7F09192946464949493101017F012C
:10017000013F4040403F1F2040201F3F4038403F4C
:100180006314081463070870080761514945430068
:100190007F41410002040810200041417F00040219
:1001A0000102044040404040000102040020545439
:1001B00054787F48444438384444442038444448C0
:1001C0007F3854545418087E0901020C5252523E92
:1001D0007F0804047800447D40002040443D007FB7
:1001E0001028440000417F40007C041804787C08FB
:1001F00004047838444444387C1414140808141453
:10020000187C7C080404084854545420043F44409B
:10021000203C4040207C1C2040201C3C4030403C86
:1002200044281028440C5050503C4464544C440022
:100230000836410000007F00000041360800100829
:10024000081008000000000011241FBECFEFD8E006
:10025000DEBFCDBF11E0A0E0B1E0EAE9F8E102C005
:1002600005900D92AA32B107D9F723E0AAE2B1E0D6
:1002700001C01D92A238B207E1F70E9499060C94C2
:100280004B0C0C94000010928000E1E8F0E010822A
:10029000109285001092840087EE91E0909389007F
:1002A00080938800808188608083808185608083DE
:1002B000EFE6F0E080818260808350985898E8E60D
:1002C000F0E0808184608083EDE6F0E080818160F1
:1002D00080830895489B2FC080912A0190912B0123
:1002E00081309105A1F060F082309105D9F410922F
:1002F0002B0110922A01909301018093000112C0FA
:1003000081E090E090932B0180932A010BC0109222
:1003100001011092000180910501895080932D0107
:1003200010922E01489B07C08FE99FE00197F1F7DB
:1003300000C00000F7CF08951F920F920FB60F92E2
:1003400011242F933F934F935F936F937F938F93DA
:100350009F93AF93BF93EF93FF930E946A01FF9126
:10036000EF91BF91AF919F918F917F916F915F912D
:100370004F913F912F910F900FBE0F901F901895A6
:100380006FE08DE00E94260561E08BE091E00E9425
:10039000160548E050E061E270E088E190E00E94DC
:1003A000250642E050E060E270E08BE190E00E94C0
:1003B000250621E230E044E250E061E270E080E2B4
:1003C00090E00E94400580912F011F928F9385E15C
:1003D00091E09F938F938EE293E09F938F930E947F
:1003E000FE086DE18CE20E9426050F900F900F90A1
:1003F0000F900F900F9061E08EE293E00C94160541
:10040000CF9310922A03C4E5C0932C0310922D03BE
:1004100010922B0320E030E044E550E060E070E013
:1004200080E090E00E94400510922A03C0932C03C4
:100430008FE280932D0380932B032FE230E044E57D
:1004400050E06FE270E080E090E0CF910C944005C6
:10045000CF93DF9310922A0310922C03D1E0D09314
:100460002D03CFE2C0932B032FE230E040E050E0B9
:1004700061E070E080E090E00E94400583E58093B9
:100480002A0380932C03D0932D03C0932B032FE2D8
:1004900030E043E550E061E070E083E590E0DF911B
:1004A000CF910C9440050E9400020E94280266E051
:1004B00089E10E94260561E088E191E00E9416052D
:1004C0006FE08DE00E94260561E08FE191E00E94DF
:1004D000160548E050E061E270E08BE290E00E9497
:1004E000250642E050E060E270E08EE290E00E947B
:1004F000250621E230E047E350E061E270E083E36B
:1005000090E00C9440051F93CF93DF932230B9F015
:100510002330E9F0213041F5142F70E0C82FD0E0EE
:100520009B012F503109AE01CE010E944005612F81
:1005300070E09B01245F3F4FAE01CE0110C090E000
:10054000262F30E0642F70E0615F7F4F07C090E09E
:10055000262F30E02F503109642F70E0AC01DF917D
:10056000CF911F910C944005DF91CF911F91089579
:10057000682F70E042E050E086E090E00C942506A1
:100580000E940002809105019CEF980F983230F094
:1005900022E030E030932B0120932A019091060154
:1005A000923009F1933071F19130D1F590910401BD
:1005B0009630B1F5482F50E02091030130E02F50E4
:1005C00031094217530744F42091020130E0245FBF
:1005D0003F4F2417350724F122E030E030932B0100
:1005E00020932A011DC0909104019630C9F42091F6
:1005F000020130E0225F3F4F482F50E024173507BB
:100600005CF30EC090910401963051F420910301E7
:1006100030E02E503109482F50E042175307E4F2E2
:100620000E94B802209106014091020160910301ED
:10063000809104010C9483021F920F920FB60F92C7
:1006400011242F933F934F935F936F937F938F93D7
:100650009F93AF93BF93EF93FF930E9431048091D8
:100660002A0190912B01892B21F40E9453021092B0
:100670002F0180912A0190912B01019709F068C008
:100680000E94C0028091000190910101892BA1F587
:100690008091050190912D018917D8F081508093A8
:1006A000050180910401815080930401843089F414
:1006B00080E58093040180912F018F5F80932F014B
:1006C0000E94E50863E070E00E94AC068F5F8093B3
:1006D00006018091050190912D0189130DC021E043
:1006E00030E0309301012093000199E0980F90933E
:1006F0002C018F5F80930501809100019091010191
:10070000019731F58091050190912C019817D8F04F
:100710008F5F8093050180910401815080930401D3
:10072000843089F480E58093040180912F018F5FEC
:1007300080932F010E94E50863E070E00E94AC0600
:100740008F5F8093060180912C01875F80932C013D
:1007500080912A0190912B01029771F40E94C001AF
:1007600010922E0110922D0110922C0186E180939F
:1007700005018FE4809304010E942B05FF91EF9106
:10078000BF91AF919F918F917F916F915F914F91A9
:100790003F912F910F900FBE0F901F9018952998A1
:1007A000662311F02B9A01C02B9827E030E090E0EF
:1007B000AC01022E02C0559547950A94E2F740FF1E
:1007C00002C02C9A01C02C982D9A2D9821503109E5
:1007D00078F7299A089560E00C94CF03CF93DF93C4
:1007E000219A229A239A249A259A2A9A299A8FE35F
:1007F0009CE90197F1F700C000002A989FEF2AE6D4
:1008000083E0915020408040E1F700C000002A9A28
:10081000299881E20E94EB0383E10E94EB0386E0CA
:100820000E94EB0382EC0E94EB0380E20E94EB0348
:1008300089E00E94EB0380E80E94EB0380E40E94C1
:10084000EB03C8EFD1E061E080E00E94CF03219785
:10085000D1F788E00E94EB038CE0DF91CF910C94FC
:10086000EB0380E80E94EB0380E40E94EB0310920C
:1008700028031092290388EF91E0E0E3F1E0DF0123
:100880009C011D9221503040E1F70895811102C072
:1008900084E201C080E20C94EB03962F9695969526
:1008A0009695E82FF0E084E5989FE00DF11D112466
:1008B000E05DFE4F677081E090E001C0880F6A95AF
:1008C000EAF7442319F09081892B03C08095908129
:1008D0008923808308958F929F92AF92BF92DF9277
:1008E000EF92FF920F931F93CF93DF9300D000D02E
:1008F0001F92CDB7DEB7F62E282F082E000C330B33
:1009000080326CF02052310985E0829FB001839FD4
:10091000700D112468597F4F45E050E00EC0220F42
:10092000331FF901EE5BFC4F0081118101151105A8
:1009300059F445E050E068E670E0CE0101960E946F
:10094000F5088E010F5F1F4F85E0F89E50011124BE
:1009500097E0F99E40011124D12C8D2D90E08A154D
:100960009B0544F5E12C8E2D90E08815990504F542
:100970008D2D6F2D0E94A006F801E80FF11D20813A
:1009800030E08E2D0E94A00602C0359527958A95ED
:10099000E2F760912903809128036E0D20FF02C0C9
:1009A00041E001C040E08D0D0E944D04E394DBCF97
:1009B000D394D3CF8091280391E0980F8F2D880F87
:1009C000880F8F0D890F843518F4809328030BC08E
:1009D00010922803809129038F5F97E0F99E800D84
:1009E00011248093290380912903803320F01092F1
:1009F0002803109229030F900F900F900F900F90E3
:100A0000DF91CF911F910F91FF90EF90DF90BF90FA
:100A1000AF909F908F90089580323CF4E82FEE0FB6
:100A2000FF0BEE5BFC4F7183608308951F93CF93A0
:100A3000DF93162FEC018991882321F0612F0E940A
:100A40006B04F9CFDF91CF911F9108958093280314
:100A5000609329030895CF93DF9380E80E94EB030E
:100A600080E40E94EB03C0E3D1E061E089910E9441
:100A7000CF0383E0C832D807C1F7DF91CF91089543
:100A80004F925F926F927F928F929F92AF92BF929E
:100A9000CF92DF92EF92FF92CF93DF93CDB7DEB785
:100AA0002E970FB6F894DEBF0FBECDBF8D87698736
:100AB000F22E642F70E0681B7109072E000C880B62
:100AC000990B0E94E4074B015C016F2D70E02985B2
:100AD000621B7109072E000C880B990B0E94E4071A
:100AE0006B017C0124013501E89477F8DC01CB012E
:100AF000BF7789839A83AB83BC839C01AD01C3011B
:100B0000B2010E94700887FF04C049805A806B8040
:100B10007C80A3019201C501B4010E944107698351
:100B20007A838B839C83A3019201C701B6010E9443
:100B300041076D837E838F839887AD856A2F70E030
:100B400080E090E00E94E2076B017C01B9856B2F89
:100B500070E080E090E00E94E2074B015C0121E040
:100B600030E03E872D87AD85BE85BD01BB0F880B6C
:100B7000990B0E94E4079B01AC01C301B2010E94E2
:100B8000700887FD2CC0C501B4010E94B3076987B6
:100B90007A878B879C87C701B6010E94B307DC0167
:100BA000CB0141E069850E944D0429813A814B8146
:100BB0005C81C701B6010E94D5066B017C012D81C5
:100BC0003E814F815885C501B4010E94D5064B0175
:100BD0005C018D859E8501969E878D87C4CF2E965C
:100BE0000FB6F894DEBF0FBECDBFDF91CF91FF905F
:100BF000EF90DF90CF90BF90AF909F908F907F90BD
:100C00006F905F904F9008950F931F93CF93DF9352
:100C1000C82F162F042FD22F262F0E9440052D2FCC
:100C2000402F612F802F0E9440052D2F4C2F6D2FBC
:100C3000802F0E944005212F4C2F6D2F8C2FDF918C
:100C4000CF911F910F910C9440057F928F929F92AC
:100C5000AF92BF92CF92DF92EF92FF920F931F93CA
:100C6000CF93DF93D82EC62EC42FD0E0E12CF12CE9
:100C700000E010E041E0AC2CA00E6A2DBC2EBD0CB3
:100C80008B2D0E944D0441E08C2E8C0C682D9D2CE8
:100C9000900E892D0E944D0441E0682D7D2C701A24
:100CA000872D0E944D0441E06A2D8D2C8C1A882DD1
:100CB0000E944D0441E0AC2CA01A6A2D882D0E94A0
:100CC0004D0441E08C2C8C1A682D872D0E944D0418
:100CD00041E0682D892D0E944D0441E06A2D8B2D45
:100CE0000E944D041E141F045CF00F5F1F4FC801CB
:100CF000880F991F0196E80EF91E1E141F043CF47C
:100D00002197CE01880F991F0196E81AF90AC0179A
:100D1000D1070CF0AFCFDF91CF911F910F91FF90D2
:100D2000EF90DF90CF90BF90AF909F908F907F908B
:100D30000895F8940E9443010E94EE037894FFCF37
:100D4000991B79E004C0991F961708F0961B881F1D
:100D50007A95C9F78095089597FB072E16F40094AD
:100D600007D077FD09D00E94C00607FC05D03EF4ED
:100D7000909581959F4F0895709561957F4F089547
:100D8000AA1BBB1B51E107C0AA1FBB1FA617B707B1
:100D900010F0A61BB70B881F991F5A95A9F78095CD
:100DA0009095BC01CD0108955058BB27AA270E94F9
:100DB000EC060C9436080E94280838F00E942F0890
:100DC00020F039F49F3F19F426F40C9425080EF412
:100DD000E095E7FB0C941F08E92F0E94470858F3A1
:100DE000BA17620773078407950720F079F4A6F510
:100DF0000C9469080EF4E0950B2EBA2FA02D0B0170
:100E0000B90190010C01CA01A0011124FF27591B4F
:100E100099F0593F50F4503E68F11A16F040A22F55
:100E2000232F342F4427585FF3CF469537952795C6
:100E3000A795F0405395C9F77EF41F16BA0B620BC5
:100E4000730B840BBAF09150A1F0FF0FBB1F661F0C
:100E5000771F881FC2F70EC0BA0F621F731F841F4F
:100E600048F4879577956795B795F7959E3F08F075
:100E7000B0CF9395880F08F09927EE0F9795879537
:100E800008950E9455070C9436080E942F0858F0C8
:100E90000E94280840F029F45F3F29F00C941F08B5
:100EA00051110C946A080C9425080E94470868F3B5
:100EB0009923B1F3552391F3951B550BBB27AA2713
:100EC00062177307840738F09F5F5F4F220F331F4D
:100ED000441FAA1FA9F335D00E2E3AF0E0E832D015
:100EE00091505040E695001CCAF72BD0FE2F29D018
:100EF000660F771F881FBB1F261737074807AB07EA
:100F0000B0E809F0BB0B802DBF01FF2793585F4F5E
:100F10003AF09E3F510578F00C941F080C946A0833
:100F20005F3FE4F3983ED4F3869577956795B79540
:100F3000F7959F5FC9F7880F911D9695879597F94B
:100F40000895E1E0660F771F881FBB1F62177307C4
:100F50008407BA0720F0621B730B840BBA0BEE1FD9
:100F600088F7E09508950E944F0888F09F5798F001
:100F7000B92F9927B751B0F0E1F0660F771F881F9E
:100F8000991F1AF0BA95C9F714C0B13091F00E94B8
:100F90006908B1E008950C946908672F782F8827B5
:100FA000B85F39F0B93FCCF3869577956795B395DF
:100FB000D9F73EF490958095709561957F4F8F4F4E
:100FC0009F4F0895E89409C097FB3EF49095809553
:100FD000709561957F4F8F4F9F4F9923A9F0F92FFF
:100FE00096E9BB279395F695879577956795B7957D
:100FF000F111F8CFFAF4BB0F11F460FF1BC06F5F63
:101000007F4F8F4F9F4F16C0882311F096E911C074
:10101000772321F09EE8872F762F05C0662371F095
:1010200096E8862F70E060E02AF09A95660F771FA9
:10103000881FDAF7880F9695879597F9089597F99D
:101040009F6780E870E060E008959FEF80EC08956E
:1010500000240A9416161706180609060895002497
:101060000A9412161306140605060895092E039411
:10107000000C11F4882352F0BB0F40F4BF2B11F485
:1010800060FF04C06F5F7F4F8F4F9F4F089557FDE4
:101090009058440F551F59F05F3F71F04795880FE6
:1010A00097FB991F61F09F3F79F08795089512167D
:1010B00013061406551FF2CF4695F1DF08C0161629
:1010C00017061806991FF1CF8695710561050894DA
:1010D0000895E894BB2766277727CB0197F90895F1
:1010E0000E94750808F48FEF0895990F0008550FB6
:1010F000AA0BE0E8FEEF16161706E807F907C0F09E
:1011000012161306E407F50798F0621B730B840BA5
:10111000950B39F40A2661F0232B242B252B21F47F
:1011200008950A2609F4A140A6958FEF811D811D1F
:1011300008958F929F92AF92BF92CF92DF92EF92DB
:10114000FF92CF93DF93EC01688179818A819B8143
:10115000611571058105910521F464E279ED8BE556
:1011600097E02DE133EF41E050E00E94B10B4901DF
:101170005A019B01AC01A7EAB1E40E94D00B6B01BC
:101180007C01ACEEB4EFA50194010E94DE0BDC0102
:10119000CB018C0D9D1DAE1DBF1DB7FF03C0019778
:1011A000A109B04888839983AA83BB839F77DF9185
:1011B000CF91FF90EF90DF90CF90BF90AF909F9036
:1011C0008F9008950E949908089587E091E00E9409
:1011D00099080895A0E0B0E080930701909308017A
:1011E000A0930901B0930A010895FB01DC0102C03C
:1011F00005900D9241505040D8F70895AEE0B0E010
:10120000E4E0F9E00C94F10B0D891E8986E08C83F3
:101210001A8309838FEF9FE79E838D83AE01475E1C
:101220005F4F6F89788DCE0101960E942009EF8172
:10123000F885E00FF11F10822E96E4E00C940D0C5F
:10124000ABE0B0E0E6E2F9E00C94E30B6C017B016B
:101250008A01FC0117821682838181FFCCC1CE01F5
:1012600001963C01F6019381F70193FD859193FF6F
:1012700081917F01882309F4BAC1853239F493FD45
:10128000859193FF81917F01853229F4B60190E029
:101290000E94170BE7CF912C212C312CFFE1F31585
:1012A000D8F08B3279F038F4803279F08332A1F4BF
:1012B000232D20611DC08D3261F0803369F4232D10
:1012C000216016C0832D8260382EE32DE4603E2E0F
:1012D0002AC0F32DF8601DC037FC2DC020ED280F6B
:1012E0002A3040F08E32B9F436FC81C1232D2064BF
:1012F000322E19C036FE06C08AE0989E200D1124B9
:10130000922E11C0EAE02E9E200D1124222EF32DE4
:10131000F0623F2E08C08C3621F4832D8068382E71
:1013200002C0883641F4F70193FD859193FF8191C6
:101330007F018111B3CF982F9F7D9554933028F46E
:101340000C5F1F4F9FE399830DC0833631F08337C5
:1013500071F0833509F059C021C0F801808189837B
:101360000E5F1F4F88248394912C530113C02801D2
:10137000F2E04F0E511CF801A080B18036FE03C090
:10138000692D70E002C06FEF7FEFC5010E940C0B6A
:101390004C018201F32DFF773F2E16C0280122E079
:1013A000420E511CF801A080B18036FE03C0692DA9
:1013B00070E002C06FEF7FEFC5010E94010B4C018E
:1013C000F32DF0683F2E820133FC1BC0822D90E08C
:1013D00088169906B0F4B60180E290E00E94170BDF
:1013E0002A94F4CFF50137FC859137FE81915F0196
:1013F000B60190E00E94170B21102A9421E0821A76
:1014000091088114910471F7E8C0843611F089368F
:1014100041F5F80137FE07C06081718182819381B7
:101420000C5F1F4F08C060817181072E000C880B74
:10143000990B0E5F1F4FF32DFF763F2E97FF09C0CC
:1014400090958095709561957F4F8F4F9F4FF06875
:101450003F2E2AE030E0A3010E94530B882E86180D
:1014600045C0853731F4232D2F7EB22E2AE030E09F
:1014700025C0932D997FB92E8F36C1F018F4883589
:1014800079F0B5C0803719F0883721F0B0C0E92F66
:10149000E061BE2EB4FE0DC0FB2DF460BF2E09C06E
:1014A00034FE0AC0292F2660B22E06C028E030E0A4
:1014B00005C020E130E002C020E132E0F801B7FED3
:1014C00007C060817181828193810C5F1F4F06C0CC
:1014D0006081718180E090E00E5F1F4FA3010E9448
:1014E000530B882E8618FB2DFF773F2E36FE0DC03E
:1014F000232D2E7FA22E891458F434FE0BC032FC0B
:1015000009C0832D8E7EA82E05C0B82CA32C03C045
:10151000B82C01C0B92CA4FE0FC0FE01E80DF11DCE
:101520008081803321F49A2D997EA92E09C0A2FED4
:1015300006C0B394B39404C08A2D867809F0B3949E
:10154000A3FC11C0A0FE06C0B21488F4280C922C93
:101550009B180EC0B21460F4B60180E290E00E94C5
:10156000170BB394F7CFB21418F42B1802C0982CB1
:10157000212CA4FE10C0B60180E390E00E94170B5E
:10158000A2FE17C0A1FC03C088E790E002C088E576
:1015900090E0B6010CC08A2D867859F0A1FE02C0F9
:1015A0008BE201C080E2A7FC8DE2B60190E00E94D0
:1015B000170B891438F4B60180E390E00E94170BF2
:1015C0009A94F7CF8A94F301E80DF11D8081B6015A
:1015D00090E00E94170B8110F5CF222009F442CE33
:1015E000B60180E290E00E94170B2A94F6CFF60134
:1015F0008681978102C08FEF9FEF2B96E2E10C94DA
:10160000FF0BFC010590615070400110D8F78095E8
:1016100090958E0F9F1F0895FC01615070400190BE
:101620000110D8F7809590958E0F9F1F08950F9306
:101630001F93CF93DF93FB01238121FD03C08FEF25
:101640009FEF2CC022FF16C046815781248135812F
:101650004217530744F4A081B1819D012F5F3F4F92
:10166000318320838C93268137812F5F3F4F3783CF
:10167000268314C08B01EC01FB010084F185E02D71
:101680000995892BE1F6D80116968D919C911797B3
:10169000019617969C938E931697CE01DF91CF916A
:1016A0001F910F910895FA01AA27283051F1203196
:1016B00081F1E8946F936E7F6E5F7F4F8F4F9F4FE6
:1016C000AF4FB1E03ED0B4E03CD0670F781F891F28
:1016D0009A1FA11D680F791F8A1F911DA11D6A0FF6
:1016E000711D811D911DA11D20D009F468943F91A9
:1016F0002AE0269F11243019305D3193DEF6CF01A8
:101700000895462F4770405D4193B3E00FD0C9F76D
:10171000F6CF462F4F70405D4A3318F0495D31FDDA
:101720004052419302D0A9F7EACFB4E0A69597952D
:10173000879577956795BA95C9F700976105710503
:1017400008959B01AC010A2E06945795479537954D
:101750002795BA95C9F7620F731F841F951FA01DA7
:101760000895052E97FB1EF400940E94C80B57FDA8
:1017700007D00E941A0C07FC03D04EF40C94C80B3F
:1017800050954095309521953F4F4F4F5F4F0895AD
:1017900090958095709561957F4F8F4F9F4F0895DD
:1017A0000E943C0CA59F900DB49F900DA49F800DAE
:1017B000911D11240895B7FF0C94D00B0E94D00BFB
:1017C000821B930B08952F923F924F925F926F92DC
:1017D0007F928F929F92AF92BF92CF92DF92EF92C1
:1017E000FF920F931F93CF93DF93CDB7DEB7CA1B42
:1017F000DB0B0FB6F894DEBF0FBECDBF09942A886D
:10180000398848885F846E847D848C849B84AA8414
:10181000B984C884DF80EE80FD800C811B81AA81A1
:10182000B981CE0FD11D0FB6F894DEBF0FBECDBF6C
:10183000ED010895A1E21A2EAA1BBB1BFD010DC0EC
:10184000AA1FBB1FEE1FFF1FA217B307E407F50770
:1018500020F0A21BB30BE40BF50B661F771F881F4C
:10186000991F1A9469F760957095809590959B01E2
:10187000AC01BD01CF010895A29FB001B39FC0018B
:10188000A39F700D811D1124911DB29F700D811DAC
:0A1890001124911D0895F894FFCF74
:10189A000200022D4F16010100000047414D45206C
:1018AA004F56455200256400434C49515545005056
:0A18BA00415241204A4F47415200BD
:00000001FF
